:100000000C9435000C945D000C945D000C945D0024
:100010000C945D000C945D000C945D000C945D00EC
:100020000C945D000C945D000C945D000C945D00DC
:100030000C945D000C945D000C945D000C945D00CC
:100040000C94D5020C945D000C9428010C94590179
:100050000C945D000C945D000C945D000C945D00AC
:100060000C945D000C945D001E0211241FBECFEFA6
:10007000D8E0DEBFCDBF11E0A0E0B1E0E8E5F7E0F9
:1000800002C005900D92A032B107D9F711E0A0E2AD
:10009000B1E001C01D92A03DB107E1F710E0CAE652
:1000A000D0E004C02297FE010E94A603C836D10703
:1000B000C9F70E94C6020C9458030C94000088EA09
:1000C00091E040E052EC61E070E00E94A0010895F0
:1000D00088EA91E060E071E00E94B3020895FC01BB
:1000E00084859585FC01E05CFF4F208131818E5B2A
:1000F0009F4FFC0180819181281B390B2F73307039
:10010000C9010895FC0184859585FC01E05CFF4FE1
:1001100040815181FC01EE5BFF4F2081318142170C
:10012000530741F00190F081E02DE80FF91F208185
:1001300030E002C02FEF3FEFC9010895FC01848534
:100140009585FC01E05CFF4F40815181FC01EE5B35
:10015000FF4F208131814217530771F0A081B18197
:10016000A80FB91F2C918081918101968F73907097
:100170009183808330E002C02FEF3FEFC9010895E3
:10018000DC011E968D919C911F97FC01E05CFF4F56
:100190008E5B9F4F40815181DC012D913C911197E5
:1001A00042175307B9F708951F93FC01162F2685B0
:1001B0003785D901A05CBF4F8D919C91019660E479
:1001C00070E00E946F03D901AE5BBF4F4D915C910F
:1001D000119784179507D1F3D901A05CBF4F0D90FB
:1001E000BC91A02DA20FB31F1C93A685B785A05C60
:1001F000BF4F11969C938E93A689B7892C9181E06D
:1002000090E0058C02C0880F991F0A94E2F7282B12
:100210002C9381E090E01F910895FB01E05CFF4F7B
:10022000208131812F5F3F4F2F733070DB01AE5B38
:10023000BF4F4D915C9111972417350739F0A0817C
:10024000B181A60FB71F8C93318320830895089541
:100250001F920F920FB60F9211242F933F934F933B
:100260005F936F937F938F939F93AF93BF93EF931E
:10027000FF938091C60060E271E00E940D01FF9142
:10028000EF91BF91AF919F918F917F916F915F910E
:100290004F913F912F910F900FBE0F901F90189587
:1002A00088EA91E00E946F00009711F00E942701F8
:1002B00008951F920F920FB60F9211242F933F9320
:1002C0005F936F937F938F939F93AF93BF93EF93BE
:1002D000FF932091A4013091A5018091A6019091F6
:1002E000A7012817390731F48091C1008F7D8093D1
:1002F000C10016C0E091A601F091A701EC59FE4F94
:1003000020818091A6019091A701019660E470E0A0
:100310000E946F039093A7018093A6012093C600CB
:10032000FF91EF91BF91AF919F918F917F916F91CD
:100330005F913F912F910F900FBE0F901F901895D6
:10034000DF92EF92FF920F931F93CF93DF93EC0115
:100350007A018B01DD24D394403081EE580780E090
:10036000680780E0780749F4DD24EC89FD89108274
:1003700060E874E88EE190E00FC0EC89FD8981E0CF
:1003800090E00E8C02C0880F991F0A94E2F78083D8
:1003900060E079E08DE390E0A80197010E9482037C
:1003A000215030404040504056954795379527950D
:1003B00080E12030380710F0DD20B1F6E889F989B6
:1003C0003083EA89FB892083EE89FF89408181E0BF
:1003D00090E09C010A8C02C0220F331F0A94E2F7BE
:1003E000422B4083EE89FF8940819C010B8C02C027
:1003F000220F331F0A94E2F7422B4083EE89FF89D4
:1004000040819C010C8C02C0220F331F0A94E2F73A
:10041000422B4083EE89FF8920810D8C02C0880F1A
:10042000991F0A94E2F7809582238083DF91CF9110
:100430001F910F91FF90EF90DF9008951092AB0104
:100440001092AA0188EE93E0A0E0B0E08093AC01A6
:100450009093AD01A093AE01B093AF01EAEAF1E051
:1004600084E191E09293829380E291E09587848782
:1004700084E691E09787868785EC90E0918B808B6E
:1004800084EC90E0938B828B80EC90E0958B848B56
:1004900081EC90E0978B868B86EC90E0918F808F3B
:1004A00084E0828F83E0838F87E0848F85E0858F6F
:1004B00081E0868F0895CF92DF92EF92FF920F93A3
:1004C0001F93CF93DF936C017B018A01C0E0D0E0E2
:1004D0000FC0D7016D917D01D601ED91FC91019086
:1004E000F081E02DC6010995C80FD91F01501040B9
:1004F0000115110571F7CE01DF91CF911F910F9179
:10050000FF90EF90DF90CF900895DB010D900020D9
:10051000E9F7AD0141505040461B570BDC01ED910E
:10052000FC910280F381E02D09950895DC01ED91A5
:10053000FC910190F081E02D099508950F931F9390
:10054000CF93DF93EC016DE00E9496028C01CE0107
:100550006AE00E949602080F191FC801DF91CF912F
:100560001F910F9108950F931F93CF93DF93EC0189
:100570000E9485028C01CE010E949E02080F191F65
:10058000C801DF91CF911F910F910895CF93DF9311
:100590000E941D030E945F00C0E5D1E00E94680038
:1005A0002097E1F30E945001F9CF1F920F920FB6EE
:1005B0000F9211242F933F938F939F93AF93BF93E9
:1005C0008091CB019091CC01A091CD01B091CE0151
:1005D0003091CF010196A11DB11D232F2D5F2D3725
:1005E00020F02D570196A11DB11D2093CF018093BE
:1005F000CB019093CC01A093CD01B093CE0180911B
:10060000C7019091C801A091C901B091CA0101969A
:10061000A11DB11D8093C7019093C801A093C9018A
:10062000B093CA01BF91AF919F918F913F912F914C
:100630000F900FBE0F901F901895789484B582602C
:1006400084BD84B5816084BD85B5826085BD85B576
:10065000816085BDEEE6F0E0808181608083E1E825
:10066000F0E010828081826080838081816080835D
:10067000E0E8F0E0808181608083E1EBF0E0808160
:1006800084608083E0EBF0E0808181608083EAE732
:10069000F0E08081846080838081826080838081BB
:1006A000816080838081806880831092C10008957A
:1006B000F8940C94AA03AA1BBB1B51E107C0AA1F04
:1006C000BB1FA617B70710F0A61BB70B881F991FF3
:1006D0005A95A9F780959095BC01CD01089597FB97
:1006E000092E07260AD077FD04D0E5DF06D00020CA
:1006F0001AF4709561957F4F0895F6F7909581955E
:100700009F4F0895A1E21A2EAA1BBB1BFD010DC02D
:10071000AA1FBB1FEE1FFF1FA217B307E407F507B1
:1007200020F0A21BB30BE40BF50B661F771F881F8D
:10073000991F1A9469F760957095809590959B0123
:10074000AC01BD01CF010895EE0FFF1F0590F4919C
:08075000E02D0994F894FFCF9D
:1007580048656C6C6F20756E6976657273652100EB
:1007680000000000D4005B026F009E008200C00001
:00000001FF
