:100000000C9462000C948A000C948A000C948A0070
:100010000C948A000C948A000C948A000C948A0038
:100020000C948A000C948A000C948A000C948A0028
:100030000C948A000C948A000C948A000C948A0018
:100040000C9439010C948A000C94E9030C941A0462
:100050000C948A000C948A000C948A000C948A00F8
:100060000C948A000C948A000000000024002700F1
:100070002A0000000000250028002B0000000000DE
:1000800023002600290004040404040404040202DA
:100090000202020203030303030301020408102007
:1000A0004080010204081020010204081020000012
:1000B0000007000201000003040600000000000029
:1000C0000000DF0411241FBECFEFD8E0DEBFCDBF9C
:1000D00011E0A0E0B1E0E2E7FDE002C005900D9282
:1000E000A031B107D9F711E0A0E1B1E001C01D9244
:1000F000A03CB107E1F710E0C4ECD0E004C02297C7
:10010000FE010E94B306C23CD107C9F70E941C063B
:100110000C942B060C94000081EA91E040E052EC34
:1001200061E070E00E94610408955F926F927F9297
:100130008F929F92AF92BF92CF92DF92EF92FF92F7
:100140000F931F9382E061E00E94400282E060E032
:100150000E94640282E090E00E94CE0182E061E0B1
:100160000E9464028AE090E00E94CE0182E060E09A
:100170000E94640284E060E00E94400284E061E04A
:1001800020E432E44FE050E00E949C023B014C012D
:100190008CE061E00E9440028CE060E00E9464021A
:1001A00082E090E00E94CE018CE061E00E94640257
:1001B0008CE060E00E94640288E060E00E944002FF
:1001C00088E061E020E432E44FE050E00E949C02CD
:1001D0005B016C0134E9E32EF12C012D112DC401DA
:1001E000B301A80197010E949606922E832E742EC9
:1001F000552EC601B501A80197010E949606122F3F
:10020000632EA42EE52E8AE090E00E94CE0181EAC2
:1002100091E00E943003009721F081EA91E00E9472
:100220005F0381EA91E0492D582D672D752D2AE055
:1002300030E00E94090681EA91E0412F562D6A2D97
:100240007E2D2AE030E00E94090664E670E080E03E
:1002500090E00E94A7011F910F91FF90EF90DF9017
:10026000CF90BF90AF909F908F907F906F905F9056
:1002700008951F920F920FB60F9211242F933F9360
:100280008F939F93AF93BF93809114019091150129
:10029000A0911601B0911701309118010196A11D8E
:1002A000B11D232F2D5F2D3720F02D570196A11D55
:1002B000B11D209318018093140190931501A09310
:1002C0001601B09317018091100190911101A09136
:1002D0001201B09113010196A11DB11D809310016F
:1002E00090931101A0931201B0931301BF91AF91AC
:1002F0009F918F913F912F910F900FBE0F901F9064
:1003000018959FB7F89420911001309111014091F8
:1003100012015091130186B5A89B06C08F3F21F0B2
:100320002F5F3F4F4F4F5F4F9FBF542F432F322FB1
:100330002227280F311D411D511D82E0220F331F3E
:10034000441F551F8A95D1F7B901CA010895EF924C
:10035000FF920F931F93CF93DF937B018C010E9439
:100360008101EB010FC00E9481016C1B7D0B83E0BA
:10037000683E780738F00894E108F108010911098E
:10038000C851DC4FE114F1040105110561F7DF915B
:10039000CF911F910F91FF90EF900895019739F041
:1003A000880F991F880F991F02970197F1F70895F9
:1003B000789484B5826084BD84B5816084BD85B540
:1003C000826085BD85B5816085BDEEE6F0E0808107
:1003D00081608083E1E8F0E0108280818260808328
:1003E000808181608083E0E8F0E0808181608083AB
:1003F000E1EBF0E0808184608083E0EBF0E08081DD
:1004000081608083EAE7F0E080818460808380817E
:100410008260808380818160808380818068808326
:100420001092C1000895833071F0843028F4813037
:10043000A1F0823021F514C08630B1F08730D1F0C0
:100440008430E9F404C0809180008F7703C08091EC
:1004500080008F7D80938000089584B58F7702C0DF
:1004600084B58F7D84BD08958091B0008F7780938F
:10047000B00008958091B0008F7D8093B000089502
:1004800090E0FC01E656FF4F2491FC01EA57FF4F34
:10049000E491EE23C1F0F0E0EE0FFF1FE859FF4FAB
:1004A00085919491DC01662341F49FB7F8948C9177
:1004B000209582238C939FBF08959FB7F8948C91C9
:1004C000822B8C939FBF08950F931F93DF93CF933D
:1004D0000F92CDB7DEB7282F30E0F901E255FF4F7C
:1004E0008491F901E656FF4F14912A573F4FF901C5
:1004F00004910023D9F0882321F069830E9413021C
:100500006981E02FF0E0EE0FFF1FEE58FF4F85915D
:100510009491DC019FB7F894662321F48C91109597
:10052000812302C08C91812B8C939FBF0F90CF9120
:10053000DF911F910F9108958F929F92AF92BF927A
:10054000CF92DF92EF92FF920F931F9390E0FC0106
:10055000E656FF4F94908A579F4FFC01E490662324
:1005600011F4882401C0892CCA01B90120E83EE3B6
:1005700040E050E00E942E060E94740659016A0174
:1005800080E090E0DC016E2D70E0FB01EE0FFF1FBC
:10059000E458FF4F2591349109C08A159B05AC059D
:1005A000BD0509F44DC00196A11DB11DF9014081A1
:1005B0004921481591F30AC08A159B05AC05BD0574
:1005C00009F43EC00196A11DB11D07C0660F771F3B
:1005D00064587F4FFB0125913491F90140814921F5
:1005E000481551F720E030E0A901FB0165917491B5
:1005F0000FC079018A01E80EF91E0A1F1B1FEA14B9
:10060000FB040C051D05E1F02F5F3F4F4F4F5F4F7F
:10061000FB01E081E921E81561F3CA01B90128E095
:1006200032E540E050E00E942E066058714C8F4F3A
:100630009F4F20E83EE340E050E00E94740603C074
:1006400020E030E0A901B901CA011F910F91FF908C
:10065000EF90DF90CF90BF90AF909F908F900895D4
:10066000FC0184859585FC01E05CFF4F2081318190
:100670008E5B9F4FFC0180819181281B390B2F736A
:100680003070C9010895FC0184859585FC01E05C0A
:10069000FF4F40815181FC01EE5BFF4F2081318192
:1006A0004217530741F00190F081E02DE80FF91F48
:1006B000208130E002C02FEF3FEFC9010895FC0117
:1006C00084859585FC01E05CFF4F40815181FC01F0
:1006D000EE5BFF4F208131814217530771F0A081FB
:1006E000B181A80FB91F2C918081918101968F73E0
:1006F00090709183808330E002C02FEF3FEFC901FB
:100700000895DC011E968D919C911F97FC01E05C81
:10071000FF4F8E5B9F4F40815181DC012D913C91B9
:10072000119742175307B9F708951F93FC01162F2D
:1007300026853785D901A05CBF4F8D919C9101968C
:1007400060E470E00E946106D901AE5BBF4F4D913D
:100750005C91119784179507D1F3D901A05CBF4F25
:100760000D90BC91A02DA20FB31F1C93A685B78539
:10077000A05CBF4F11969C938E93A689B7892C914C
:1007800081E090E0058C02C0880F991F0A94E2F77F
:10079000282B2C9381E090E01F910895FB01E05CF1
:1007A000FF4F208131812F5F3F4F2F733070DB016E
:1007B000AE5BBF4F4D915C9111972417350739F00F
:1007C000A081B181A60FB71F8C9331832083089538
:1007D00008951F920F920FB60F9211242F933F93FB
:1007E0004F935F936F937F938F939F93AF93BF9339
:1007F000EF93FF938091C60069E171E00E94CE0300
:10080000FF91EF91BF91AF919F918F917F916F91E8
:100810005F914F913F912F910F900FBE0F901F90BE
:10082000189581EA91E00E943003009711F00E9430
:10083000E80308951F920F920FB60F9211242F9381
:100840003F935F936F937F938F939F93AF93BF93E8
:10085000EF93FF9320919D0130919E0180919F0124
:100860009091A0012817390731F48091C1008F7D44
:100870008093C10016C0E0919F01F091A001E35A5E
:10088000FE4F208180919F019091A001019660E42C
:1008900070E00E9461069093A00180939F012093D5
:1008A000C600FF91EF91BF91AF919F918F917F9182
:1008B0006F915F913F912F910F900FBE0F901F90FE
:1008C0001895DF92EF92FF920F931F93CF93DF93D0
:1008D000EC017A018B01DD24D394403081EE58077E
:1008E00080E0680780E0780749F4DD24EC89FD8921
:1008F000108260E874E88EE190E00FC0EC89FD8919
:1009000081E090E00E8C02C0880F991F0A94E2F7F4
:10091000808360E079E08DE390E0A80197010E9478
:1009200074062150304040405040569547953795C9
:10093000279580E12030380710F0DD20B1F6E889F6
:10094000F9893083EA89FB892083EE89FF89408118
:1009500081E090E09C010A8C02C0220F331F0A94B0
:10096000E2F7422B4083EE89FF8940819C010B8C8A
:1009700002C0220F331F0A94E2F7422B4083EE8914
:10098000FF8940819C010C8C02C0220F331F0A9406
:10099000E2F7422B4083EE89FF8920810D8C02C053
:1009A000880F991F0A94E2F7809582238083DF9154
:1009B000CF911F910F91FF90EF90DF9008951092CB
:1009C000A4011092A30188EE93E0A0E0B0E0809330
:1009D000A5019093A601A093A701B093A801E3EA13
:1009E000F1E084E091E09293829389E191E0958730
:1009F00084878DE591E09787868785EC90E0918BE1
:100A0000808B84EC90E0938B828B80EC90E0958BD4
:100A1000848B81EC90E0978B868B86EC90E0918FB5
:100A2000808F84E0828F83E0838F87E0848F85E0EE
:100A3000858F81E0868F0895CF92DF92EF92FF92AB
:100A40000F931F93CF93DF936C017B018A01C0E06A
:100A5000D0E00FC0D7016D917D01D601ED91FC91E1
:100A60000190F081E02DC6010995C80FD91F0150F2
:100A700010400115110571F7CE01DF91CF911F9143
:100A80000F91FF90EF90DF90CF900895DB010D90D4
:100A90000020E9F7AD0141505040461B570BDC01E7
:100AA000ED91FC910280F381E02D09950895DC0120
:100AB000ED91FC910190F081E02D099508950F933F
:100AC0001F93CF93DF93EC016DE00E9457058C01DB
:100AD000CE016AE00E945705080F191FC801DF9177
:100AE000CF911F910F9108958F929F92AF92BF92D5
:100AF000CF92DF92EF92FF920F931F93DF93CF93EA
:100B0000CDB7DEB7A1970FB6F894DEBF0FBECDBF4D
:100B10006C01042FE52FCB01122F19A2223008F40B
:100B20001AE021E2E22EF12CEC0EFD1E812E99241A
:100B3000AA24BB2403C0022FE32FCA01602F7E2FFB
:100B4000A50194010E947406129F802D1124081B98
:100B50000894E108F1080A3014F4005D01C0095C52
:100B6000F7010083211531054105510521F7C60123
:100B7000B7010E944605A1960FB6F894DEBF0FBEDE
:100B8000CDBFCF91DF911F910F91FF90EF90DF903C
:100B9000CF90BF90AF909F908F900895CF92DF92AB
:100BA000EF92FF920F931F93CF93DF93EC017A01A3
:100BB0008B012115310541F4E881F9810190F08123
:100BC000E02D642F09951AC02A303105A9F477FF6A
:100BD00012C06DE20E9457056C0144275527BA01E7
:100BE0004E195F09600B710BCE012AE00E9474055B
:100BF000C80ED91E04C02AE00E9474056C01C6010B
:100C0000DF91CF911F910F91FF90EF90DF90CF90E8
:100C100008950F931F93CF93DF93EC010E94CE05AD
:100C20008C01CE010E945F05080F191FC801DF91DA
:100C3000CF911F910F910895CF93DF930E94D80118
:100C40000E948C00C1E1D4E00E9495002097E1F35E
:100C50000E941104F9CFF8940C94B706629FD0015A
:100C6000739FF001829FE00DF11D649FE00DF11D67
:100C7000929FF00D839FF00D749FF00D659FF00D16
:100C80009927729FB00DE11DF91F639FB00DE11D03
:100C9000F91FBD01CF0111240895AA1BBB1B51E10F
:100CA00007C0AA1FBB1FA617B70710F0A61BB70BDC
:100CB000881F991F5A95A9F780959095BC01CD0181
:100CC000089597FB092E07260AD077FD04D0E5DFAB
:100CD00006D000201AF4709561957F4F0895F6F7BD
:100CE000909581959F4F0895A1E21A2EAA1BBB1BD8
:100CF000FD010DC0AA1FBB1FEE1FFF1FA217B307E8
:100D0000E407F50720F0A21BB30BE40BF50B661FFD
:100D1000771F881F991F1A9469F7609570958095C1
:100D200090959B01AC01BD01CF01089597FB092E61
:100D300005260ED057FD04D0D7DF0AD0001C38F4AA
:100D400050954095309521953F4F4F4F5F4F0895F7
:100D5000F6F790958095709561957F4F8F4F9F4FD7
:100D60000895EE0FFF1F0590F491E02D0994F8947B
:020D7000FFCFB3
:100D72000000000095031C0530035F034303810359
:00000001FF
