:100000000C9435000C945D000C945D000C945D0024
:100010000C945D000C945D000C945D000C945D00EC
:100020000C945D000C945D000C945D000C945D00DC
:100030000C945D000C945D000C945D000C945D00CC
:100040000C940D010C945D000C9495020C94C60266
:100050000C945D000C945D000C945D000C945D00AC
:100060000C945D000C945D008B0311241FBECFEF38
:10007000D8E0DEBFCDBF11E0A0E0B1E0EAE9FCE0EE
:1000800002C005900D92AA31B107D9F711E0AAE19B
:10009000B1E001C01D92A03DB107E1F710E0CAE652
:1000A000D0E004C02297FE010E944706C836D1075F
:1000B000C9F70E94F2030C9488050C94000086E0B6
:1000C00090E00E940104FC0190931B0180931A01AF
:1000D000118210821382128208958DEA91E040E02D
:1000E00052EC61E070E00E940D038AE290E00E9411
:1000F0007D050E945F000895FA01E20FF31F6083FF
:1001000060708070907024E09695879577956795DC
:100110002A95D1F7618308958F929F92AF92BF92F3
:10012000CF92DF92EF92FF920F931F93CF93DF93C3
:100130005B016C0179018A0180E190E00E94010479
:10014000882EE4014E01992EE40118828FEF8983F5
:10015000C601B501A40122E030E00E947C00C80184
:10016000B701A40124E030E00E947C00C801B7017F
:10017000A40126E030E00E947C00C801B701A40180
:1001800028E030E00E947C00C801B701A4012AE009
:1001900030E00E947C00C801B701A4012CE030E0EF
:1001A0000E947C008EEE8E871F868DEA91E0B4015E
:1001B00040E150E00E94C803DF91CF911F910F9161
:1001C000FF90EF90DF90CF90BF90AF909F908F9077
:1001D00008950895EF92FF920F931F936CED75E0D1
:1001E00080E090E00E947B010E9478057C010E94E3
:1001F00078050027F7FC0095102F9C01442737FD58
:100200004095542FC801B70101E010E00E948C0016
:100210001F910F91FF90EF9008951F920F920FB6CC
:100220000F9211242F933F938F939F93AF93BF937C
:100230008091200190912101A0912201B091230190
:10024000309124010196A11DB11D232F2D5F2D3763
:1002500020F02D570196A11DB11D209324018093FC
:10026000200190932101A0932201B093230180915A
:100270001C0190911D01A0911E01B0911F010196DA
:10028000A11DB11D80931C0190931D01A0931E011F
:10029000B0931F01BF91AF919F918F913F912F918B
:1002A0000F900FBE0F901F9018959FB7F894209154
:1002B0001C0130911D0140911E0150911F0186B516
:1002C000A89B06C08F3F21F02F5F3F4F4F4F5F4FDE
:1002D0009FBF542F432F322F2227280F311D411D3E
:1002E000511D82E0220F331F441F551F8A95D1F7FD
:1002F000B901CA010895EF92FF920F931F93CF9314
:10030000DF937B018C010E945501EB010FC00E941D
:1003100055016C1B7D0B83E0683E780738F008942C
:10032000E108F10801091109C851DC4FE114F10499
:100330000105110561F7DF91CF911F910F91FF909A
:10034000EF900895789484B5826084BD84B581600F
:1003500084BD85B5826085BD85B5816085BDEEE6CD
:10036000F0E0808181608083E1E8F0E010828081AC
:1003700082608083808181608083E0E8F0E080811A
:1003800081608083E1EBF0E0808184608083E0EB3A
:10039000F0E0808181608083EAE7F0E08081846022
:1003A000808380818260808380818160808380817E
:1003B000806880831092C1000895FC018485958532
:1003C000FC01E05CFF4F208131818E5B9F4FFC017F
:1003D00080819181281B390B2F733070C9010895DA
:1003E000FC0184859585FC01E05CFF4F40815181D3
:1003F000FC01EE5BFF4F208131814217530741F032
:100400000190F081E02DE80FF91F208130E002C05B
:100410002FEF3FEFC9010895FC0184859585FC010C
:10042000E05CFF4F40815181FC01EE5BFF4F20817A
:1004300031814217530771F0A081B181A80FB91F14
:100440002C918081918101968F739070918380832C
:1004500030E002C02FEF3FEFC9010895DC011E9686
:100460008D919C911F97FC01E05CFF4F8E5B9F4F2D
:1004700040815181DC012D913C9111974217530726
:10048000B9F708951F93FC01162F26853785D901EA
:10049000A05CBF4F8D919C91019660E470E00E943A
:1004A000BE05D901AE5BBF4F4D915C91119784178A
:1004B0009507D1F3D901A05CBF4F0D90BC91A02D41
:1004C000A20FB31F1C93A685B785A05CBF4F1196E2
:1004D0009C938E93A689B7892C9181E090E0058C3E
:1004E00002C0880F991F0A94E2F7282B2C9381E011
:1004F00090E01F910895FB01E05CFF4F2081318166
:100500002F5F3F4F2F733070DB01AE5BBF4F4D91BC
:100510005C9111972417350739F0A081B181A60F9E
:10052000B71F8C933183208308951F920F920FB6CB
:100530000F9211242F933F934F935F936F937F9369
:100540008F939F93AF93BF93EF93FF938091C600D8
:1005500065E271E00E947B02FF91EF91BF91AF9144
:100560009F918F917F916F915F914F913F912F91CB
:100570000F900FBE0F901F9018958DEA91E00E948A
:10058000DD01009711F00E94E90008951F920F927B
:100590000FB60F9211242F933F935F936F937F9326
:1005A0008F939F93AF93BF93EF93FF932091A901F4
:1005B0003091AA018091AB019091AC0128173907C5
:1005C00031F48091C1008F7D8093C10016C0E0910D
:1005D000AB01F091AC01E759FE4F20818091AB0156
:1005E0009091AC01019660E470E00E94BE0590938A
:1005F000AC018093AB012093C600FF91EF91BF91B6
:10060000AF919F918F917F916F915F913F912F91CA
:100610000F900FBE0F901F901895DF92EF92FF92F0
:100620000F931F93CF93DF93EC017A018B01DD24AD
:10063000D394403081EE580780E0680780E0780767
:1006400049F4DD24EC89FD89108260E874E88EE1CC
:1006500090E00FC0EC89FD8981E090E00E8C02C033
:10066000880F991F0A94E2F7808360E079E08DE3B8
:1006700090E0A80197010E94D105215030404040F0
:100680005040569547953795279580E1203038079B
:1006900010F0DD20B1F6E889F9893083EA89FB8919
:1006A0002083EE89FF89408181E090E09C010A8CE3
:1006B00002C0220F331F0A94E2F7422B4083EE89D7
:1006C000FF8940819C010B8C02C0220F331F0A94CA
:1006D000E2F7422B4083EE89FF8940819C010C8C1C
:1006E00002C0220F331F0A94E2F7422B4083EE89A7
:1006F000FF8920810D8C02C0880F991F0A94E2F7B0
:10070000809582238083DF91CF911F910F91FF907D
:10071000EF90DF9008951092B0011092AF0188EE33
:1007200093E0A0E0B0E08093B1019093B201A09378
:10073000B301B093B401EFEAF1E08EE091E092935F
:10074000829385E291E09587848789E691E0978797
:10075000868785EC90E0918B808B84EC90E0938B86
:10076000828B80EC90E0958B848B81EC90E0978B72
:10077000868B86EC90E0918F808F84E0828F83E07F
:10078000838F87E0848F85E0858F81E0868F089551
:10079000CF92DF92EF92FF920F931F93CF93DF934D
:1007A0006C017B018A01C0E0D0E00FC0D7016D91E0
:1007B0007D01D601ED91FC910190F081E02DC60103
:1007C0000995C80FD91F015010400115110571F787
:1007D000CE01DF91CF911F910F91FF90EF90DF90AD
:1007E000CF900895CF93DF930E94A2010E946D00E5
:1007F000CDEBD2E00E94EA002097E1F30E94BD0217
:10080000F9CFCF93DF938230910510F482E090E02E
:10081000E091CE01F091CF0140E050E020E030E0E7
:1008200026C06081718168177907E0F06817790741
:1008300081F4828193812115310531F0D90113961C
:100840009C938E9312972BC09093CF018093CE01EF
:1008500026C04115510519F06417750718F4AB014E
:10086000E901DF019F0172816381E72FF62F309745
:10087000C1F64115510501F1481B590B4430510592
:1008800080F412968D919C911397209719F09B8379
:100890008A8304C09093CF018093CE01FD013296EC
:1008A00046C0FD01E40FF51F8193919342505040E3
:1008B00011965C934E933BC02091CC013091CD01B9
:1008C0002115310541F4209102013091030130934B
:1008D000CD012093CC012091040130910501211517
:1008E000310541F42DB73EB740910001509101010F
:1008F000241B350BE091CC01F091CD01E217F307F9
:10090000A0F42E1B3F0B2817390778F0AC014E5F7F
:100910005F4F2417350748F04E0F5F1F5093CD01EE
:100920004093CC018193919302C0E0E0F0E0CF01CD
:10093000DF91CF910895CF93DF93009709F491C091
:10094000FC013297138212826091CE017091CF0127
:100950006115710581F420813181280F391F809143
:10096000CC019091CD018217930799F5F093CD01B9
:10097000E093CC0176C0DB0180E090E002C0CD01C5
:10098000D901AE17BF0748F412962D913C911397E9
:1009900021153105A1F7CD0121C0B383A283EF0159
:1009A000499159919E01240F351FA217B30779F47D
:1009B0002D913C911197240F351F2E5F3F4F3183AE
:1009C000208312962D913C911397338322830097B5
:1009D00029F4F093CF01E093CE0143C0DC011396DC
:1009E000FC93EE9312974D915D91A40FB51FEA17FA
:1009F000FB0769F420813181240F351F2E5F3F4FA3
:100A0000EC0139832883228133813B832A83E0E010
:100A1000F0E002C0FB01BC01DB0112968D919C91BC
:100A200013970097B9F79B012E5F3F4F8D919C91D3
:100A30001197820F931F4091CC015091CD0148171F
:100A4000590779F4309729F41092CF011092CE0112
:100A500002C013821282225030403093CD01209385
:100A6000CC01DF91CF910895A0E0B0E0EAE3F5E09A
:100A70000C941606EC01688179818A819B8161154D
:100A800071058105910521F464E279ED8BE597E02C
:100A90002DE133EF41E050E00E94F30579018A0136
:100AA00027EA31E440E050E00E948B055B016C01D5
:100AB000C801B7012CEE34EF4FEF5FEF0E948B05BA
:100AC0006A0D7B1D8C1D9D1D97FF04C061507040F9
:100AD00080409048688379838A839B837F77CB01AA
:100AE000CDB7DEB7EAE00C9432060E9434050895D3
:100AF00086E091E00E9434050895A0E0B0E0809384
:100B0000060190930701A0930801B093090108958D
:100B1000F8940C944B06629FD001739FF001829F62
:100B2000E00DF11D649FE00DF11D929FF00D839F7C
:100B3000F00D749FF00D659FF00D9927729FB00D19
:100B4000E11DF91F639FB00DE11DF91FBD01CF012C
:100B500011240895AA1BBB1B51E107C0AA1FBB1F8C
:100B6000A617B70710F0A61BB70B881F991F5A9539
:100B7000A9F780959095BC01CD01089597FB092EAA
:100B800007260AD077FD04D0E5DF06D000201AF44E
:100B9000709561957F4F0895F6F7909581959F4FD9
:100BA0000895A1E21A2EAA1BBB1BFD010DC0AA1FAE
:100BB000BB1FEE1FFF1FA217B307E407F50720F0C6
:100BC000A21BB30BE40BF50B661F771F881F991F41
:100BD0001A9469F760957095809590959B01AC018A
:100BE000BD01CF01089597FB092E05260ED057FDB4
:100BF00004D0D7DF0AD0001C38F4509540953095CA
:100C000021953F4F4F4F5F4F0895F6F79095809590
:100C1000709561957F4F8F4F9F4F08952F923F9210
:100C20004F925F926F927F928F929F92AF92BF92FC
:100C3000CF92DF92EF92FF920F931F93CF93DF93A8
:100C4000CDB7DEB7CA1BDB0B0FB6F894DEBF0FBE05
:100C5000CDBF09942A88398848885F846E847D8452
:100C60008C849B84AA84B984C884DF80EE80FD8054
:100C70000C811B81AA81B981CE0FD11D0FB6F894CA
:100C8000DEBF0FBECDBFED010895EE0FFF1F059033
:0A0C9000F491E02D0994F894FFCFD1
:100C9A002000D00100000100000000000000420214
:0A0CAA00C803DD010C02F0012E0268
:00000001FF
