:100000000C9435000C945D000C945D000C945D0024
:100010000C945D000C945D000C945D000C945D00EC
:100020000C945D000C945D000C945D000C945D00DC
:100030000C945D000C945D000C945D000C945D00CC
:100040000C948D030C945D000C9441010C9472018E
:100050000C945D000C945D000C945D000C945D00AC
:100060000C945D000C945D00370211241FBECFEF8D
:10007000D8E0DEBFCDBF11E0A0E0B1E0E8ECF8E0F1
:1000800002C005900D92A831B107D9F711E0A8E19F
:10009000B1E001C01D92AA3CB107E1F710E0CAE649
:1000A000D0E004C02297FE010E945E04C836D1074A
:1000B000C9F70E947E030C9410040C94000082EA9D
:1000C00091E040E052EC61E070E00E94B9010895D7
:1000D00082EA91E00E94880018161906C4F482EAA8
:1000E00091E00E94B700909319018093180182EA71
:1000F00091E060E071E00E94CC0260911801709183
:10010000190182EA91E040E150E00E9474030895F1
:10011000FC0184859585FC01E05CFF4F20813181E5
:100120008E5B9F4FFC0180819181281B390B2F73BF
:100130003070C9010895FC0184859585FC01E05C5F
:10014000FF4F40815181FC01EE5BFF4F20813181E7
:100150004217530741F00190F081E02DE80FF91F9D
:10016000208130E002C02FEF3FEFC9010895FC016C
:1001700084859585FC01E05CFF4F40815181FC0145
:10018000EE5BFF4F208131814217530771F0A08150
:10019000B181A80FB91F2C918081918101968F7335
:1001A00090709183808330E002C02FEF3FEFC90150
:1001B0000895DC011E968D919C911F97FC01E05CD7
:1001C000FF4F8E5B9F4F40815181DC012D913C910F
:1001D000119742175307B9F708951F93FC01162F83
:1001E00026853785D901A05CBF4F8D919C910196E2
:1001F00060E470E00E942704D901AE5BBF4F4D91CF
:100200005C91119784179507D1F3D901A05CBF4F7A
:100210000D90BC91A02DA20FB31F1C93A685B7858E
:10022000A05CBF4F11969C938E93A689B7892C91A1
:1002300081E090E0058C02C0880F991F0A94E2F7D4
:10024000282B2C9381E090E01F910895FB01E05C46
:10025000FF4F208131812F5F3F4F2F733070DB01C3
:10026000AE5BBF4F4D915C9111972417350739F064
:10027000A081B181A60FB71F8C933183208308958D
:1002800008951F920F920FB60F9211242F933F9350
:100290004F935F936F937F938F939F93AF93BF938E
:1002A000EF93FF938091C6006AE171E00E942601FE
:1002B000FF91EF91BF91AF919F918F917F916F913E
:1002C0005F914F913F912F910F900FBE0F901F9014
:1002D000189582EA91E00E948800009711F00E9430
:1002E000400108951F920F920FB60F9211242F9381
:1002F0003F935F936F937F938F939F93AF93BF933E
:10030000EF93FF9320919E0130919F018091A00176
:100310009091A1012817390731F48091C1008F7D98
:100320008093C10016C0E091A001F091A101E25AB2
:10033000FE4F20818091A0019091A101019660E47F
:1003400070E00E9427049093A1018093A001209364
:10035000C600FF91EF91BF91AF919F918F917F91D7
:100360006F915F913F912F910F900FBE0F901F9053
:100370001895DF92EF92FF920F931F93CF93DF9325
:10038000EC017A018B01DD24D394403081EE5807D3
:1003900080E0680780E0780749F4DD24EC89FD8976
:1003A000108260E874E88EE190E00FC0EC89FD896E
:1003B00081E090E00E8C02C0880F991F0A94E2F74A
:1003C000808360E079E08DE390E0A80197010E94CE
:1003D0003A0421503040404050405695479537955B
:1003E000279580E12030380710F0DD20B1F6E8894C
:1003F000F9893083EA89FB892083EE89FF8940816E
:1004000081E090E09C010A8C02C0220F331F0A9405
:10041000E2F7422B4083EE89FF8940819C010B8CDF
:1004200002C0220F331F0A94E2F7422B4083EE8969
:10043000FF8940819C010C8C02C0220F331F0A945B
:10044000E2F7422B4083EE89FF8920810D8C02C0A8
:10045000880F991F0A94E2F7809582238083DF91A9
:10046000CF911F910F91FF90EF90DF900895109220
:10047000A5011092A40188EE93E0A0E0B0E0809383
:10048000A6019093A701A093A801B093A901E4EA63
:10049000F1E08BE091E0929382938AE191E095877D
:1004A00084878EE591E09787868785EC90E0918B35
:1004B000808B84EC90E0938B828B80EC90E0958B2A
:1004C000848B81EC90E0978B868B86EC90E0918F0B
:1004D000808F84E0828F83E0838F87E0848F85E044
:1004E000858F81E0868F0895CF92DF92EF92FF9201
:1004F0000F931F93CF93DF936C017B018A01C0E0C0
:10050000D0E00FC0D7016D917D01D601ED91FC9136
:100510000190F081E02DC6010995C80FD91F015047
:1005200010400115110571F7CE01DF91CF911F9198
:100530000F91FF90EF90DF90CF900895DB010D9029
:100540000020E9F7AD0141505040461B570BDC013C
:10055000ED91FC910280F381E02D09950895DC0175
:10056000ED91FC910190F081E02D099508950F9394
:100570001F93CF93DF93EC016DE00E94AF028C01DB
:10058000CE016AE00E94AF02080F191FC801DF9177
:10059000CF911F910F9108950F931F93CF93DF93E6
:1005A000EC010E949E028C01CE010E94B702080F4E
:1005B000191FC801DF91CF911F910F9108958F925C
:1005C0009F92AF92BF92CF92DF92EF92FF920F93E2
:1005D0001F93DF93CF93CDB7DEB7A1970FB6F894F3
:1005E000DEBF0FBECDBF6C01042FE52FCB01122F54
:1005F00019A2223008F41AE021E2E22EF12CEC0ECE
:10060000FD1E812E9924AA24BB2403C0022FE32FB0
:10061000CA01602F7E2FA50194010E943A04129F07
:10062000802D1124081B0894E108F1080A3014F405
:10063000005D01C0095CF70100832115310541050A
:10064000510521F7C601B7010E949E02A1960FB67F
:10065000F894DEBF0FBECDBFCF91DF911F910F91F8
:10066000FF90EF90DF90CF90BF90AF909F908F90D2
:100670000895CF92DF92EF92FF920F931F93CF9343
:10068000DF93EC017A018B012115310541F4E881FA
:10069000F9810190F081E02D642F09951AC02A306C
:1006A0003105A9F477FF12C06DE20E94AF026C0120
:1006B00044275527BA014E195F09600B710BCE0113
:1006C0002AE00E94DF02C80ED91E04C02AE00E9460
:1006D000DF026C01C601DF91CF911F910F91FF9056
:1006E000EF90DF90CF9008959A01FB01AF0166274C
:1006F00057FD6095762F0E9439030895CF93DF93BD
:100700000E94D5030E945F00C9E6D1E00E94680004
:100710002097E1F30E946901F9CF1F920F920FB663
:100720000F9211242F933F938F939F93AF93BF9377
:100730008091C5019091C601A091C701B091C801F7
:100740003091C9010196A11DB11D232F2D5F2D37B9
:1007500020F02D570196A11DB11D2093C901809352
:10076000C5019093C601A093C701B093C8018091C1
:10077000C1019091C201A091C301B091C401019641
:10078000A11DB11D8093C1019093C201A093C3012B
:10079000B093C401BF91AF919F918F913F912F91E1
:1007A0000F900FBE0F901F901895789484B58260BB
:1007B00084BD84B5816084BD85B5826085BD85B505
:1007C000816085BDEEE6F0E0808181608083E1E8B4
:1007D000F0E01082808182608083808181608083EC
:1007E000E0E8F0E0808181608083E1EBF0E08081EF
:1007F00084608083E0EBF0E0808181608083EAE7C1
:10080000F0E0808184608083808182608083808149
:10081000816080838081806880831092C100089508
:10082000F8940C946204AA1BBB1B51E107C0AA1FD9
:10083000BB1FA617B70710F0A61BB70B881F991F81
:100840005A95A9F780959095BC01CD01089597FB25
:10085000092E07260AD077FD04D0E5DF06D0002058
:100860001AF4709561957F4F0895F6F790958195EC
:100870009F4F0895A1E21A2EAA1BBB1BFD010DC0BC
:10088000AA1FBB1FEE1FFF1FA217B307E407F50740
:1008900020F0A21BB30BE40BF50B661F771F881F1C
:1008A000991F1A9469F760957095809590959B01B2
:1008B000AC01BD01CF010895EE0FFF1F0590F4912B
:0808C000E02D0994F894FFCF2C
:1008C80041686F7921200000000000ED0074028863
:0808D80000B7009B00D90000ED
:00000001FF
