:100000000C9462000C948A000C948A000C948A0070
:100010000C948A000C948A000C948A000C948A0038
:100020000C948A000C948A000C948A000C948A0028
:100030000C948A000C948A000C948A000C948A0018
:100040000C9475010C948A000C94D8030C94090448
:100050000C948A000C948A000C948A000C948A00F8
:100060000C948A000C948A000000000024002700F1
:100070002A0000000000250028002B0000000000DE
:1000800023002600290004040404040404040202DA
:100090000202020203030303030301020408102007
:1000A0004080010204081020010204081020000012
:1000B0000007000201000003040600000000000029
:1000C0000000CE0411241FBECFEFD8E0DEBFCDBFAD
:1000D00011E0A0E0B1E0EAE0FEE002C005900D9280
:1000E000A631B107D9F711E0A6E1B1E001C01D9238
:1000F000AA3CB107E1F710E0C4ECD0E004C02297BD
:10010000FE010E94FF06C23CD107C9F70E943505D7
:100110000C9477060C94000087EA91E040E855E2E1
:1001200060E070E00E9450040895FA01E20FF31FAE
:1001300060839B01AC01DA01C9018070A070B070CE
:1001400024E0B695A795979587952A95D1F7818351
:100150004283538308958F929F92AF92BF92CF9222
:10016000DF92EF92FF920F931F93CF93DF937B0168
:100170008C0159016A018AE090E00E944405882EB2
:10018000E4014E01992EE4018FEF8883C801B70185
:10019000A40121E030E00E949500C601B501A40150
:1001A00025E030E00E9495008EEE898787EA91E095
:1001B000B4014AE050E00E940B05DF91CF911F91FE
:1001C0000F91FF90EF90DF90CF90BF90AF909F90F6
:1001D0008F9008956F927F928F929F92AF92BF926D
:1001E000CF92DF92EF92FF920F931F9382E061E034
:1001F0000E942F0282E060E00E94530282E090E0C1
:100200000E94BD0182E061E00E9453028AE090E01A
:100210000E94BD0182E060E00E94530284E060E041
:100220000E942F0284E061E020E432E44FE050E0DD
:100230000E948B025B016C018CE061E00E942F0246
:100240008CE060E00E94530282E090E00E94BD01D9
:100250008CE061E00E9453028CE060E00E94530257
:1002600088E060E00E942F0288E061E020E432E450
:100270004FE050E00E948B023B014C018AE090E08D
:100280000E94BD0187EA91E00E941F03009701F1DF
:1002900087EA91E00E9432038F3F9105C9F434E967
:1002A000E32EF12C012D112DC601B501A8019701F6
:1002B0000E94E20659016A01C401B301A801970135
:1002C0000E94E206C601B50101E010E00E94AB0009
:1002D0001F910F91FF90EF90DF90CF90BF90AF9064
:1002E0009F908F907F906F9008951F920F920FB6FE
:1002F0000F9211242F933F938F939F93AF93BF93AC
:1003000080911A0190911B01A0911C01B0911D01D7
:1003100030911E010196A11DB11D232F2D5F2D3798
:1003200020F02D570196A11DB11D20931E01809331
:100330001A0190931B01A0931C01B0931D018091A1
:10034000160190911701A0911801B0911901019621
:10035000A11DB11D8093160190931701A093180160
:10036000B0931901BF91AF919F918F913F912F91C0
:100370000F900FBE0F901F901895019739F0880FBE
:10038000991F880F991F02970197F1F708957894A4
:1003900084B5826084BD84B5816084BD85B582608A
:1003A00085BD85B5816085BDEEE6F0E08081816028
:1003B0008083E1E8F0E01082808182608083808128
:1003C00081608083E0E8F0E0808181608083E1EB00
:1003D000F0E0808184608083E0EBF0E080818160E8
:1003E0008083EAE7F0E0808184608083808182609E
:1003F0008083808181608083808180688083109287
:10040000C1000895833071F0843028F48130A1F068
:10041000823021F514C08630B1F08730D1F08430BD
:10042000E9F404C0809180008F7703C08091800040
:100430008F7D80938000089584B58F7702C084B546
:100440008F7D84BD08958091B0008F778093B00038
:1004500008958091B0008F7D8093B000089590E062
:10046000FC01E656FF4F2491FC01EA57FF4FE4914F
:10047000EE23C1F0F0E0EE0FFF1FE859FF4F85912A
:100480009491DC01662341F49FB7F8948C912095F8
:1004900082238C939FBF08959FB7F8948C91822BF1
:1004A0008C939FBF08950F931F93DF93CF930F9269
:1004B000CDB7DEB7282F30E0F901E255FF4F849128
:1004C000F901E656FF4F14912A573F4FF901049165
:1004D0000023D9F0882321F069830E9402026981F8
:1004E000E02FF0E0EE0FFF1FEE58FF4F8591949143
:1004F000DC019FB7F894662321F48C911095812339
:1005000002C08C91812B8C939FBF0F90CF91DF9174
:100510001F910F9108958F929F92AF92BF92CF92A9
:10052000DF92EF92FF920F931F9390E0FC01E6564B
:10053000FF4F94908A579F4FFC01E490662311F47B
:10054000882401C0892CCA01B90120E83EE340E0BB
:1005500050E00E947A060E94C00659016A0180E0BC
:1005600090E0DC016E2D70E0FB01EE0FFF1FE45800
:10057000FF4F2591349109C08A159B05AC05BD0537
:1005800009F44DC00196A11DB11DF9014081492119
:10059000481591F30AC08A159B05AC05BD0509F401
:1005A0003EC00196A11DB11D07C0660F771F64589C
:1005B0007F4FFB0125913491F90140814921481574
:1005C00051F720E030E0A901FB01659174910FC063
:1005D00079018A01E80EF91E0A1F1B1FEA14FB04A9
:1005E0000C051D05E1F02F5F3F4F4F4F5F4FFB01A3
:1005F000E081E921E81561F3CA01B90128E032E59B
:1006000040E050E00E947A066058714C8F4F9F4F37
:1006100020E83EE340E050E00E94C00603C020E036
:1006200030E0A901B901CA011F910F91FF90EF902D
:10063000DF90CF90BF90AF909F908F900895FC0176
:1006400084859585FC01E05CFF4F208131818E5BC4
:100650009F4FFC0180819181281B390B2F733070D3
:10066000C9010895FC0184859585FC01E05CFF4F7C
:1006700040815181FC01EE5BFF4F208131814217A7
:10068000530741F00190F081E02DE80FF91F208120
:1006900030E002C02FEF3FEFC9010895FC018485CF
:1006A0009585FC01E05CFF4F40815181FC01EE5BD0
:1006B000FF4F208131814217530771F0A081B18132
:1006C000A80FB91F2C918081918101968F73907032
:1006D0009183808330E002C02FEF3FEFC90108957E
:1006E000DC011E968D919C911F97FC01E05CFF4FF1
:1006F0008E5B9F4F40815181DC012D913C91119780
:1007000042175307B9F708951F93FC01162F26854A
:100710003785D901A05CBF4F8D919C91019660E413
:1007200070E00E94AD06D901AE5BBF4F4D915C9168
:10073000119784179507D1F3D901A05CBF4F0D9095
:10074000BC91A02DA20FB31F1C93A685B785A05CFA
:10075000BF4F11969C938E93A689B7892C9181E007
:1007600090E0058C02C0880F991F0A94E2F7282BAD
:100770002C9381E090E01F910895FB01E05CFF4F16
:10078000208131812F5F3F4F2F733070DB01AE5BD3
:10079000BF4F4D915C9111972417350739F0A08117
:1007A000B181A60FB71F8C933183208308950895DC
:1007B0001F920F920FB60F9211242F933F934F93D6
:1007C0005F936F937F938F939F93AF93BF93EF93B9
:1007D000FF938091C6006FE171E00E94BD03FF911D
:1007E000EF91BF91AF919F918F917F916F915F91A9
:1007F0004F913F912F910F900FBE0F901F90189522
:1008000087EA91E00E941F03009711F00E94D7032E
:1008100008951F920F920FB60F9211242F933F93BA
:100820005F936F937F938F939F93AF93BF93EF9358
:10083000FF932091A3013091A4018091A501909193
:10084000A6012817390731F48091C1008F7D80936C
:10085000C10016C0E091A501F091A601ED59FE4F2F
:1008600020818091A5019091A601019660E470E03D
:100870000E94AD069093A6018093A5012093C60027
:10088000FF91EF91BF91AF919F918F917F916F9168
:100890005F913F912F910F900FBE0F901F90189571
:1008A000DF92EF92FF920F931F93CF93DF93EC01B0
:1008B0007A018B01DD24D394403081EE580780E02B
:1008C000680780E0780749F4DD24EC89FD8910820F
:1008D00060E874E88EE190E00FC0EC89FD8981E06A
:1008E00090E00E8C02C0880F991F0A94E2F7808373
:1008F00060E079E08DE390E0A80197010E94C006D6
:1009000021503040404050405695479537952795A7
:1009100080E12030380710F0DD20B1F6E889F98950
:100920003083EA89FB892083EE89FF89408181E059
:1009300090E09C010A8C02C0220F331F0A94E2F758
:10094000422B4083EE89FF8940819C010B8C02C0C1
:10095000220F331F0A94E2F7422B4083EE89FF896E
:1009600040819C010C8C02C0220F331F0A94E2F7D5
:10097000422B4083EE89FF8920810D8C02C0880FB5
:10098000991F0A94E2F7809582238083DF91CF91AB
:100990001F910F91FF90EF90DF9008951092AA01A0
:1009A0001092A90188EE93E0A0E0B0E08093AB0143
:1009B0009093AC01A093AD01B093AE01E9EAF1E0F0
:1009C0008AE091E0929382938FE191E0958784870A
:1009D00083E691E09787868785EC90E0918B808B0A
:1009E00084EC90E0938B828B80EC90E0958B848BF1
:1009F00081EC90E0978B868B86EC90E0918F808FD6
:100A000084E0828F83E0838F87E0848F85E0858F09
:100A100081E0868F0895CF92DF92EF92FF920F933D
:100A20001F93CF93DF936C017B018A01C0E0D0E07C
:100A30000FC0D7016D917D01D601ED91FC91019020
:100A4000F081E02DC6010995C80FD91F0150104053
:100A50000115110571F7CE01DF91CF911F910F9113
:100A6000FF90EF90DF90CF900895CF93DF930E9497
:100A7000C7010E948C00C0E0D4E00E94EA002097E9
:100A8000E1F30E940004F9CFCF93DF938230910508
:100A900010F482E090E0E091C801F091C90140E0DB
:100AA00050E020E030E026C060817181681779074E
:100AB000E0F06817790781F482819381211531056F
:100AC00031F0D90113969C938E9312972BC090937B
:100AD000C9018093C80126C04115510519F064175A
:100AE000750718F4AB01E901DF019F017281638191
:100AF000E72FF62F3097C1F64115510501F1481B3C
:100B0000590B4430510580F412968D919C911397A6
:100B1000209719F09B838A8304C09093C901809326
:100B2000C801FD01329646C0FD01E40FF51F819317
:100B300091934250504011965C934E933BC020914C
:100B4000C6013091C7012115310541F42091020100
:100B5000309103013093C7012093C6012091040115
:100B6000309105012115310541F42DB73EB7409173
:100B7000000150910101241B350BE091C601F09159
:100B8000C701E217F307A0F42E1B3F0B2817390704
:100B900078F0AC014E5F5F4F2417350748F04E0FD9
:100BA0005F1F5093C7014093C6018193919302C088
:100BB000E0E0F0E0CF01DF91CF910895CF93DF9394
:100BC000009709F491C0FC01329713821282609160
:100BD000C8017091C9016115710581F420813181CD
:100BE000280F391F8091C6019091C7018217930782
:100BF00099F5F093C701E093C60176C0DB0180E070
:100C000090E002C0CD01D901AE17BF0748F412969B
:100C10002D913C91139721153105A1F7CD0121C0EC
:100C2000B383A283EF01499159919E01240F351F8F
:100C3000A217B30779F42D913C911197240F351F1A
:100C40002E5F3F4F3183208312962D913C91139755
:100C500033832283009729F4F093C901E093C801FC
:100C600043C0DC011396FC93EE9312974D915D9176
:100C7000A40FB51FEA17FB0769F420813181240F07
:100C8000351F2E5F3F4FEC0139832883228133814A
:100C90003B832A83E0E0F0E002C0FB01BC01DB0102
:100CA00012968D919C9113970097B9F79B012E5F37
:100CB0003F4F8D919C911197820F931F4091C601D8
:100CC0005091C7014817590779F4309729F41092C9
:100CD000C9011092C80102C0138212822250304012
:100CE0003093C7012093C601DF91CF910895F89406
:100CF0000C940307629FD001739FF001829FE00D67
:100D0000F11D649FE00DF11D929FF00D839FF00D8A
:100D1000749FF00D659FF00D9927729FB00DE11D36
:100D2000F91F639FB00DE11DF91FBD01CF01112413
:100D30000895AA1BBB1B51E107C0AA1FBB1FA61722
:100D4000B70710F0A61BB70B881F991F5A95A9F774
:100D500080959095BC01CD01089597FB092E07263B
:100D60000AD077FD04D0E5DF06D000201AF4709594
:100D700061957F4F0895F6F7909581959F4F08955F
:100D8000A1E21A2EAA1BBB1BFD010DC0AA1FBB1F8F
:100D9000EE1FFF1FA217B307E407F50720F0A21B01
:100DA000B30BE40BF50B661F771F881F991F1A946E
:100DB00069F760957095809590959B01AC01BD0198
:100DC000CF01089597FB092E05260ED057FD04D0BC
:100DD000D7DF0AD0001C38F4509540953095219506
:100DE0003F4F4F4F5F4F0895F6F790958095709560
:100DF00061957F4F8F4F9F4F0895EE0FFF1F059016
:0A0E0000F491E02D0994F894FFCF5F
:100E0A002000CA0100000000000084030B051F0334
:060E1A004E0332037003D9
:00000001FF
