:100000000C9435000C945D000C945D000C945D0024
:100010000C945D000C945D000C945D000C945D00EC
:100020000C945D000C945D000C945D000C945D00DC
:100030000C945D000C945D000C945D000C945D00CC
:100040000C94E6020C945D000C9439010C946A0146
:100050000C945D000C945D000C945D000C945D00AC
:100060000C945D000C945D002F0211241FBECFEF95
:10007000D8E0DEBFCDBF11E0A0E0B1E0EAE7F7E0F5
:1000800002C005900D92A631B107D9F711E0A6E1A3
:10009000B1E001C01D92A83CB107E1F710E0CAE64B
:1000A000D0E004C02297FE010E94B703C836D107F2
:1000B000C9F70E94D7020C9469030C94000080EAEF
:1000C00091E040E052EC61E070E00E94B1010895DF
:1000D00080EA91E00E9480001816190684F480EAF4
:1000E00091E00E94AF008FEF90E090931701809312
:1000F000160180EA91E060E071E00E94C402089578
:10010000FC0184859585FC01E05CFF4F20813181F5
:100110008E5B9F4FFC0180819181281B390B2F73CF
:100120003070C9010895FC0184859585FC01E05C6F
:10013000FF4F40815181FC01EE5BFF4F20813181F7
:100140004217530741F00190F081E02DE80FF91FAD
:10015000208130E002C02FEF3FEFC9010895FC017C
:1001600084859585FC01E05CFF4F40815181FC0155
:10017000EE5BFF4F208131814217530771F0A08160
:10018000B181A80FB91F2C918081918101968F7345
:1001900090709183808330E002C02FEF3FEFC90160
:1001A0000895DC011E968D919C911F97FC01E05CE7
:1001B000FF4F8E5B9F4F40815181DC012D913C911F
:1001C000119742175307B9F708951F93FC01162F93
:1001D00026853785D901A05CBF4F8D919C910196F2
:1001E00060E470E00E948003D901AE5BBF4F4D9187
:1001F0005C91119784179507D1F3D901A05CBF4F8B
:100200000D90BC91A02DA20FB31F1C93A685B7859E
:10021000A05CBF4F11969C938E93A689B7892C91B1
:1002200081E090E0058C02C0880F991F0A94E2F7E4
:10023000282B2C9381E090E01F910895FB01E05C56
:10024000FF4F208131812F5F3F4F2F733070DB01D3
:10025000AE5BBF4F4D915C9111972417350739F074
:10026000A081B181A60FB71F8C933183208308959D
:1002700008951F920F920FB60F9211242F933F9360
:100280004F935F936F937F938F939F93AF93BF939E
:10029000EF93FF938091C60068E171E00E941E0118
:1002A000FF91EF91BF91AF919F918F917F916F914E
:1002B0005F914F913F912F910F900FBE0F901F9024
:1002C000189580EA91E00E948000009711F00E944A
:1002D000380108951F920F920FB60F9211242F9399
:1002E0003F935F936F937F938F939F93AF93BF934E
:1002F000EF93FF9320919C0130919D0180919E018D
:1003000090919F012817390731F48091C1008F7DAA
:100310008093C10016C0E0919E01F0919F01E45AC4
:10032000FE4F208180919E0190919F01019660E493
:1003300070E00E94800390939F0180939E01209320
:10034000C600FF91EF91BF91AF919F918F917F91E7
:100350006F915F913F912F910F900FBE0F901F9063
:100360001895DF92EF92FF920F931F93CF93DF9335
:10037000EC017A018B01DD24D394403081EE5807E3
:1003800080E0680780E0780749F4DD24EC89FD8986
:10039000108260E874E88EE190E00FC0EC89FD897E
:1003A00081E090E00E8C02C0880F991F0A94E2F75A
:1003B000808360E079E08DE390E0A80197010E94DE
:1003C0009303215030404040504056954795379513
:1003D000279580E12030380710F0DD20B1F6E8895C
:1003E000F9893083EA89FB892083EE89FF8940817E
:1003F00081E090E09C010A8C02C0220F331F0A9416
:10040000E2F7422B4083EE89FF8940819C010B8CEF
:1004100002C0220F331F0A94E2F7422B4083EE8979
:10042000FF8940819C010C8C02C0220F331F0A946B
:10043000E2F7422B4083EE89FF8920810D8C02C0B8
:10044000880F991F0A94E2F7809582238083DF91B9
:10045000CF911F910F91FF90EF90DF900895109230
:10046000A3011092A20188EE93E0A0E0B0E0809397
:10047000A4019093A501A093A601B093A701E2EA7D
:10048000F1E08AE091E09293829388E191E0958790
:1004900084878CE591E09787868785EC90E0918B47
:1004A000808B84EC90E0938B828B80EC90E0958B3A
:1004B000848B81EC90E0978B868B86EC90E0918F1B
:1004C000808F84E0828F83E0838F87E0848F85E054
:1004D000858F81E0868F0895CF92DF92EF92FF9211
:1004E0000F931F93CF93DF936C017B018A01C0E0D0
:1004F000D0E00FC0D7016D917D01D601ED91FC9147
:100500000190F081E02DC6010995C80FD91F015057
:1005100010400115110571F7CE01DF91CF911F91A8
:100520000F91FF90EF90DF90CF900895DB010D9039
:100530000020E9F7AD0141505040461B570BDC014C
:10054000ED91FC910280F381E02D09950895DC0185
:10055000ED91FC910190F081E02D099508950F93A4
:100560001F93CF93DF93EC016DE00E94A7028C01F3
:10057000CE016AE00E94A702080F191FC801DF918F
:10058000CF911F910F9108950F931F93CF93DF93F6
:10059000EC010E9496028C01CE010E94AF02080F6E
:1005A000191FC801DF91CF911F910F910895CF932B
:1005B000DF930E942E030E945F00C1E6D1E00E94FB
:1005C00068002097E1F30E946101F9CF1F920F921A
:1005D0000FB60F9211242F933F938F939F93AF9356
:1005E000BF938091C3019091C401A091C501B091C6
:1005F000C6013091C7010196A11DB11D232F2D5FAA
:100600002D3720F02D570196A11DB11D2093C70154
:100610008093C3019093C401A093C501B093C60118
:100620008091BF019091C001A091C101B091C20120
:100630000196A11DB11D8093BF019093C001A093AD
:10064000C101B093C201BF91AF919F918F913F9132
:100650002F910F900FBE0F901F901895789484B52E
:10066000826084BD84B5816084BD85B5826085BDAE
:1006700085B5816085BDEEE6F0E080818160808394
:10068000E1E8F0E010828081826080838081816077
:100690008083E0E8F0E0808181608083E1EBF0E03E
:1006A000808184608083E0EBF0E0808181608083E2
:1006B000EAE7F0E0808184608083808182608083CB
:1006C0008081816080838081806880831092C100F6
:1006D0000895F8940C94BB03AA1BBB1B51E107C0FF
:1006E000AA1FBB1FA617B70710F0A61BB70B881FC2
:1006F000991F5A95A9F780959095BC01CD01089551
:1007000097FB092E07260AD077FD04D0E5DF06D037
:1007100000201AF4709561957F4F0895F6F7909533
:1007200081959F4F0895A1E21A2EAA1BBB1BFD01C4
:100730000DC0AA1FBB1FEE1FFF1FA217B307E407C0
:10074000F50720F0A21BB30BE40BF50B661F771F18
:10075000881F991F1A9469F76095709580959095F8
:100760009B01AC01BD01CF010895EE0FFF1F059065
:0A077000F491E02D0994F894FFCFF6
:10077A0041686F79210000000000E5006C028000EA
:06078A00AF009300D10056
:00000001FF
