:100000000C9462000C9428010C9455010C948A0005
:100010000C948A000C948A000C948A000C948A0038
:100020000C948A000C948A000C948A000C948A0028
:100030000C948A000C948A000C948A000C948A0018
:100040000C9482010C948A000C9451030C9482034A
:100050000C948A000C948A000C948A000C948A00F8
:100060000C948A000C948A000000000024002700F1
:100070002A0000000000250028002B0000000000DE
:1000800023002600290004040404040404040202DA
:100090000202020203030303030301020408102007
:1000A0004080010204081020010204081020000012
:1000B0000007000201000003040600000000000029
:1000C0000000470411241FBECFEFD8E0DEBFCDBF34
:1000D00011E0A0E0B1E0E4E0FCE002C005900D9288
:1000E000A631B107D9F711E0A6E1B1E001C01D9238
:1000F000AE3CB107E1F710E0C4ECD0E004C02297B9
:10010000FE010E94FC05C23CD107C9F70E949F0571
:100110000C94AE050C94000080911601909117018B
:10012000019690931701809316010895809118010C
:1001300090911901019690931901809318010895E7
:1001400087E061E00E943C0287E060E00E9460027C
:1001500082E090E00E94CA0187E061E00E946002B4
:100160008AE090E00E94CA0187E060E00E9460029D
:1001700088E061E00E943C0288E060E00E9460024A
:1001800082E090E00E94CA0188E061E00E94600283
:100190008AE090E00E94CA0188E060E00E9460026C
:1001A00008958FEA91E040E855E260E070E00E9437
:1001B000C90380E06CE870E041E050E00E94080173
:1001C00081E066E970E041E050E00E9408010E9491
:1001D000A0000895CF93DF93CFEAD1E0CE0160E095
:1001E00071E00E94DC046091160170911701CE014C
:1001F00040E150E00E94840560911801709119015E
:10020000CE0140E150E00E948405DF91CF91089536
:100210008230E8F4E82FF0E0EE0FFF1FE65EFE4FBD
:1002200071836083813041F0809169008C7F842BE1
:1002300080936900E89A089580916900440F551FE2
:10024000440F551F837F842B80936900E99A08959A
:100250001F920F920FB60F9211242F933F934F933B
:100260005F936F937F938F939F93AF93BF93EF931E
:10027000FF9380911A0190911B01009729F0E09162
:100280001A01F0911B010995FF91EF91BF91AF9178
:100290009F918F917F916F915F914F913F912F919E
:1002A0000F900FBE0F901F9018951F920F920FB6D0
:1002B0000F9211242F933F934F935F936F937F93EC
:1002C0008F939F93AF93BF93EF93FF9380911C0104
:1002D00090911D01009729F0E0911C01F0911D0102
:1002E0000995FF91EF91BF91AF919F918F917F9170
:1002F0006F915F914F913F912F910F900FBE0F9093
:100300001F9018951F920F920FB60F9211242F93E2
:100310003F938F939F93AF93BF93809122019091CE
:100320002301A0912401B09125013091260101966D
:10033000A11DB11D232F2D5F2D3720F02D570196C4
:10034000A11DB11D209326018093220190932301CA
:10035000A0932401B093250180911E0190911F016B
:10036000A0912001B09121010196A11DB11D8093A2
:100370001E0190931F01A0932001B0932101BF9112
:10038000AF919F918F913F912F910F900FBE0F9042
:100390001F901895019739F0880F991F880F991FA2
:1003A00002970197F1F70895789484B5826084BD2F
:1003B00084B5816084BD85B5826085BD85B5816069
:1003C00085BDEEE6F0E0808181608083E1E8F0E0C9
:1003D0001082808182608083808181608083E0E8F8
:1003E000F0E0808181608083E1EBF0E080818460D7
:1003F0008083E0EBF0E0808181608083EAE7F0E0D9
:10040000808184608083808182608083808181603C
:1004100080838081806880831092C100089583303A
:1004200071F0843028F48130A1F0823021F514C0BD
:100430008630B1F08730D1F08430E9F404C0809187
:1004400080008F7703C0809180008F7D8093800033
:10045000089584B58F7702C084B58F7D84BD0895DB
:100460008091B0008F778093B00008958091B000A4
:100470008F7D8093B000089590E0FC01E656FF4F19
:100480002491FC01EA57FF4FE491EE23C1F0F0E024
:10049000EE0FFF1FE859FF4F85919491DC01662311
:1004A00041F49FB7F8948C91209582238C939FBF41
:1004B00008959FB7F8948C91822B8C939FBF0895D9
:1004C0000F931F93DF93CF930F92CDB7DEB7282FF3
:1004D00030E0F901E255FF4F8491F901E656FF4FF4
:1004E00014912A573F4FF90104910023D9F0882332
:1004F00021F069830E940F026981E02FF0E0EE0F86
:10050000FF1FEE58FF4F85919491DC019FB7F8943F
:10051000662321F48C911095812302C08C91812B4C
:100520008C939FBF0F90CF91DF911F910F910895F2
:10053000FC0184859585FC01E05CFF4F20813181C1
:100540008E5B9F4FFC0180819181281B390B2F739B
:100550003070C9010895FC0184859585FC01E05C3B
:10056000FF4F40815181FC01EE5BFF4F20813181C3
:100570004217530741F00190F081E02DE80FF91F79
:10058000208130E002C02FEF3FEFC9010895FC0148
:1005900084859585FC01E05CFF4F40815181FC0121
:1005A000EE5BFF4F208131814217530771F0A0812C
:1005B000B181A80FB91F2C918081918101968F7311
:1005C00090709183808330E002C02FEF3FEFC9012C
:1005D0000895DC011E968D919C911F97FC01E05CB3
:1005E000FF4F8E5B9F4F40815181DC012D913C91EB
:1005F000119742175307B9F708951F93FC01162F5F
:1006000026853785D901A05CBF4F8D919C910196BD
:1006100060E470E00E94C505D901AE5BBF4F4D910B
:100620005C91119784179507D1F3D901A05CBF4F56
:100630000D90BC91A02DA20FB31F1C93A685B7856A
:10064000A05CBF4F11969C938E93A689B7892C917D
:1006500081E090E0058C02C0880F991F0A94E2F7B0
:10066000282B2C9381E090E01F910895FB01E05C22
:10067000FF4F208131812F5F3F4F2F733070DB019F
:10068000AE5BBF4F4D915C9111972417350739F040
:10069000A081B181A60FB71F8C9331832083089569
:1006A00008951F920F920FB60F9211242F933F932C
:1006B0004F935F936F937F938F939F93AF93BF936A
:1006C000EF93FF938091C60067E271E00E943603CA
:1006D000FF91EF91BF91AF919F918F917F916F911A
:1006E0005F914F913F912F910F900FBE0F901F90F0
:1006F00018958FEA91E00E949802009711F00E94ED
:10070000500308951F920F920FB60F9211242F934A
:100710003F935F936F937F938F939F93AF93BF9319
:10072000EF93FF932091AB013091AC018091AD012B
:100730009091AE012817390731F48091C1008F7D67
:100740008093C10016C0E091AD01F091AE01E55972
:10075000FE4F20818091AD019091AE01019660E441
:1007600070E00E94C5059093AE018093AD01209387
:10077000C600FF91EF91BF91AF919F918F917F91B3
:100780006F915F913F912F910F900FBE0F901F902F
:100790001895DF92EF92FF920F931F93CF93DF9301
:1007A000EC017A018B01DD24D394403081EE5807AF
:1007B00080E0680780E0780749F4DD24EC89FD8952
:1007C000108260E874E88EE190E00FC0EC89FD894A
:1007D00081E090E00E8C02C0880F991F0A94E2F726
:1007E000808360E079E08DE390E0A80197010E94AA
:1007F000D805215030404040504056954795379598
:10080000279580E12030380710F0DD20B1F6E88927
:10081000F9893083EA89FB892083EE89FF89408149
:1008200081E090E09C010A8C02C0220F331F0A94E1
:10083000E2F7422B4083EE89FF8940819C010B8CBB
:1008400002C0220F331F0A94E2F7422B4083EE8945
:10085000FF8940819C010C8C02C0220F331F0A9437
:10086000E2F7422B4083EE89FF8920810D8C02C084
:10087000880F991F0A94E2F7809582238083DF9185
:10088000CF911F910F91FF90EF90DF9008951092FC
:10089000B2011092B10188EE93E0A0E0B0E0809345
:1008A000B3019093B401A093B501B093B601E1EB0D
:1008B000F1E08AE091E09293829387E291E095875C
:1008C00084878BE691E09787868785EC90E0918B13
:1008D000808B84EC90E0938B828B80EC90E0958B06
:1008E000848B81EC90E0978B868B86EC90E0918FE7
:1008F000808F84E0828F83E0838F87E0848F85E020
:10090000858F81E0868F0895CF92DF92EF92FF92DC
:100910000F931F93CF93DF936C017B018A01C0E09B
:10092000D0E00FC0D7016D917D01D601ED91FC9112
:100930000190F081E02DC6010995C80FD91F015023
:1009400010400115110571F7CE01DF91CF911F9174
:100950000F91FF90EF90DF90CF900895DB010D9005
:100960000020E9F7AD0141505040461B570BDC0118
:10097000ED91FC910280F381E02D09950895DC0151
:10098000ED91FC910190F081E02D099508950F9370
:100990001F93CF93DF93EC016DE00E94BF048C01A5
:1009A000CE016AE00E94BF04080F191FC801DF9141
:1009B000CF911F910F9108950F931F93CF93DF93C2
:1009C000EC010E94AE048C01CE010E94C704080F06
:1009D000191FC801DF91CF911F910F9108958F9238
:1009E0009F92AF92BF92CF92DF92EF92FF920F93BE
:1009F0001F93DF93CF93CDB7DEB7A1970FB6F894CF
:100A0000DEBF0FBECDBF6C01042FE52FCB01122F2F
:100A100019A2223008F41AE021E2E22EF12CEC0EA9
:100A2000FD1E812E9924AA24BB2403C0022FE32F8C
:100A3000CA01602F7E2FA50194010E94D805129F44
:100A4000802D1124081B0894E108F1080A3014F4E1
:100A5000005D01C0095CF7010083211531054105E6
:100A6000510521F7C601B7010E94AE04A1960FB649
:100A7000F894DEBF0FBECDBFCF91DF911F910F91D4
:100A8000FF90EF90DF90CF90BF90AF909F908F90AE
:100A90000895CF92DF92EF92FF920F931F93CF931F
:100AA000DF93EC017A018B012115310541F4E881D6
:100AB000F9810190F081E02D642F09951AC02A3048
:100AC0003105A9F477FF12C06DE20E94BF046C01EA
:100AD00044275527BA014E195F09600B710BCE01EF
:100AE0002AE00E94EF04C80ED91E04C02AE00E942A
:100AF000EF046C01C601DF91CF911F910F91FF9020
:100B0000EF90DF90CF9008950F931F93CF93DF93D3
:100B1000EC019A01CB01AC01662757FD6095762F59
:100B2000CE010E9449058C01CE010E94C704080F26
:100B3000191FC801DF91CF911F910F910895CF9395
:100B4000DF930E94D4010E94D100C9E7D3E00E9444
:100B5000EA002097E1F30E947903F9CFF8940C940E
:100B60000006AA1BBB1B51E107C0AA1FBB1FA6178B
:100B7000B70710F0A61BB70B881F991F5A95A9F746
:100B800080959095BC01CD01089597FB092E07260D
:100B90000AD077FD04D0E5DF06D000201AF4709566
:100BA00061957F4F0895F6F7909581959F4F089531
:100BB000A1E21A2EAA1BBB1BFD010DC0AA1FBB1F61
:100BC000EE1FFF1FA217B307E407F50720F0A21BD3
:100BD000B30BE40BF50B661F771F881F991F1A9440
:100BE00069F760957095809590959B01AC01BD016A
:100BF000CF010895EE0FFF1F0590F491E02D0994A9
:040C0000F894FFCF96
:100C040048656C6C6F0000000000FD0284049802CB
:060C1400C702AB02E90279
:00000001FF
