:100000000C9462000C948A000C948A000C948A0070
:100010000C948A000C948A000C948A000C948A0038
:100020000C948A000C948A000C948A000C948A0028
:100030000C948A000C948A000C948A000C948A0018
:100040000C9432010C948A000C94E2030C94130477
:100050000C948A000C948A000C948A000C948A00F8
:100060000C948A000C948A000000000024002700F1
:100070002A0000000000250028002B0000000000DE
:1000800023002600290004040404040404040202DA
:100090000202020203030303030301020408102007
:1000A0004080010204081020010204081020000012
:1000B0000007000201000003040600000000000029
:1000C0000000D80411241FBECFEFD8E0DEBFCDBFA3
:1000D00011E0A0E0B1E0E4E4FDE002C005900D9283
:1000E000A233B107D9F711E0A2E3B1E001C01D923C
:1000F000A23EB107E1F710E0C4ECD0E004C02297C3
:10010000FE010E949C06C23CD107C9F70E94050669
:100110000C9414060C94000083EC91E040E052EC47
:1001200061E070E00E945A0408956F927F928F926E
:100130009F92AF92BF92CF92DF92EF92FF920F9376
:100140001F93CF93DF9382E061E00E94390282E047
:1001500060E00E945D0282E090E00E94C70182E0C0
:1001600061E00E945D028AE090E00E94C70182E0A7
:1001700060E00E945D0284E060E00E94390284E059
:1001800061E020E432E44FE050E00E9495025B0120
:100190006C018CE061E00E9439028CE060E00E941A
:1001A0005D0282E090E00E94C7018CE061E00E9465
:1001B0005D028CE060E00E945D0288E060E00E94E9
:1001C000390288E061E020E432E44FE050E00E9430
:1001D00095023B014C018AE090E00E94C701C3EC0C
:1001E000D1E084E9E82EF12C012D112DC601B501D5
:1001F000A80197010E947F06CE01BA01A9012AE059
:1002000030E00E94CA05CE0160E071E00E94500516
:10021000C401B301A80197010E947F06CE01BA0173
:10022000A9012AE030E00E94CA05CE0162E171E036
:100230000E945005CE010E945B0564E670E080E0FC
:1002400090E00E94A001DF91CF911F910F91FF904C
:10025000EF90DF90CF90BF90AF909F908F907F9066
:100260006F9008951F920F920FB60F9211242F9343
:100270003F938F939F93AF93BF938091360190915B
:100280003701A0913801B091390130913A010196BE
:10029000A11DB11D232F2D5F2D3720F02D57019665
:1002A000A11DB11D20933A0180933601909337012F
:1002B000A0933801B09339018091320190913301BC
:1002C000A0913401B09135010196A11DB11D80931B
:1002D000320190933301A0933401B0933501BF9163
:1002E000AF919F918F913F912F910F900FBE0F90E3
:1002F0001F9018959FB7F8942091320130913301E7
:10030000409134015091350186B5A89B06C08F3FBE
:1003100021F02F5F3F4F4F4F5F4F9FBF542F432F11
:10032000322F2227280F311D411D511D82E0220F3F
:10033000331F441F551F8A95D1F7B901CA0108958B
:10034000EF92FF920F931F93CF93DF937B018C016A
:100350000E947A01EB010FC00E947A016C1B7D0B99
:1003600083E0683E780738F00894E108F108010955
:100370001109C851DC4FE114F1040105110561F7C1
:10038000DF91CF911F910F91FF90EF90089501970A
:1003900039F0880F991F880F991F02970197F1F77D
:1003A0000895789484B5826084BD84B5816084BDED
:1003B00085B5826085BD85B5816085BDEEE6F0E0DE
:1003C000808181608083E1E8F0E01082808182603A
:1003D0008083808181608083E0E8F0E080818160BB
:1003E0008083E1EBF0E0808184608083E0EBF0E0EB
:1003F000808181608083EAE7F0E08081846080838F
:100400008081826080838081816080838081806838
:1004100080831092C1000895833071F0843028F4F5
:100420008130A1F0823021F514C08630B1F08730E0
:10043000D1F08430E9F404C0809180008F7703C04C
:10044000809180008F7D80938000089584B58F77A0
:1004500002C084B58F7D84BD08958091B0008F77F0
:100460008093B00008958091B0008F7D8093B0009C
:10047000089590E0FC01E656FF4F2491FC01EA57F5
:10048000FF4FE491EE23C1F0F0E0EE0FFF1FE859BB
:10049000FF4F85919491DC01662341F49FB7F89456
:1004A0008C91209582238C939FBF08959FB7F894D9
:1004B0008C91822B8C939FBF08950F931F93DF9392
:1004C000CF930F92CDB7DEB7282F30E0F901E25578
:1004D000FF4F8491F901E656FF4F14912A573F4F81
:1004E000F90104910023D9F0882321F069830E9447
:1004F0000C026981E02FF0E0EE0FFF1FEE58FF4F76
:1005000085919491DC019FB7F894662321F48C9136
:100510001095812302C08C91812B8C939FBF0F90EB
:10052000CF91DF911F910F9108958F929F92AF927B
:10053000BF92CF92DF92EF92FF920F931F9390E0C2
:10054000FC01E656FF4F94908A579F4FFC01E490C0
:10055000662311F4882401C0892CCA01B90120E85E
:100560003EE340E050E00E9417060E945D065901FC
:100570006A0180E090E0DC016E2D70E0FB01EE0F7F
:10058000FF1FE458FF4F2591349109C08A159B0540
:10059000AC05BD0509F44DC00196A11DB11DF901C1
:1005A00040814921481591F30AC08A159B05AC0585
:1005B000BD0509F43EC00196A11DB11D07C0660F1F
:1005C000771F64587F4FFB0125913491F9014081D9
:1005D0004921481551F720E030E0A901FB01659160
:1005E00074910FC079018A01E80EF91E0A1F1B1FC2
:1005F000EA14FB040C051D05E1F02F5F3F4F4F4F40
:100600005F4FFB01E081E921E81561F3CA01B901FF
:1006100028E032E540E050E00E9417066058714C37
:100620008F4F9F4F20E83EE340E050E00E945D0680
:1006300003C020E030E0A901B901CA011F910F9168
:10064000FF90EF90DF90CF90BF90AF909F908F90F2
:100650000895FC0184859585FC01E05CFF4F2081B5
:1006600031818E5B9F4FFC0180819181281B390B6A
:100670002F733070C9010895FC0184859585FC01B4
:10068000E05CFF4F40815181FC01EE5BFF4F208118
:1006900031814217530741F00190F081E02DE80FBE
:1006A000F91F208130E002C02FEF3FEFC90108950C
:1006B000FC0184859585FC01E05CFF4F4081518100
:1006C000FC01EE5BFF4F208131814217530771F02F
:1006D000A081B181A80FB91F2C91808191810196D1
:1006E0008F7390709183808330E002C02FEF3FEFD3
:1006F000C9010895DC011E968D919C911F97FC0104
:10070000E05CFF4F8E5B9F4F40815181DC012D915A
:100710003C91119742175307B9F708951F93FC01B5
:10072000162F26853785D901A05CBF4F8D919C91EE
:10073000019660E470E00E944A06D901AE5BBF4FAB
:100740004D915C91119784179507D1F3D901A05C65
:10075000BF4F0D90BC91A02DA20FB31F1C93A68577
:10076000B785A05CBF4F11969C938E93A689B789DD
:100770002C9181E090E0058C02C0880F991F0A94AB
:10078000E2F7282B2C9381E090E01F910895FB0164
:10079000E05CFF4F208131812F5F3F4F2F7330701E
:1007A000DB01AE5BBF4F4D915C911197241735076C
:1007B00039F0A081B181A60FB71F8C9331832083BC
:1007C000089508951F920F920FB60F9211242F9340
:1007D0003F934F935F936F937F938F939F93AF93C9
:1007E000BF93EF93FF938091C6006BE371E00E948B
:1007F000C703FF91EF91BF91AF919F918F917F912F
:100800006F915F914F913F912F910F900FBE0F907D
:100810001F90189583EC91E00E942903009711F036
:100820000E94E10308951F920F920FB60F921124B8
:100830002F933F935F936F937F938F939F93AF9388
:10084000BF93EF93FF932091BF013091C00180913E
:10085000C1019091C2012817390731F48091C1007C
:100860008F7D8093C10016C0E091C101F091C2015B
:10087000E158FE4F20818091C1019091C201019603
:1008800060E470E00E944A069093C2018093C10127
:100890002093C600FF91EF91BF91AF919F918F91EF
:1008A0007F916F915F913F912F910F900FBE0F90AD
:1008B0001F901895DF92EF92FF920F931F93CF93A3
:1008C000DF93EC017A018B01DD24D394403081EE7B
:1008D000580780E0680780E0780749F4DD24EC8958
:1008E000FD89108260E874E88EE190E00FC0EC8929
:1008F000FD8981E090E00E8C02C0880F991F0A9458
:10090000E2F7808360E079E08DE390E0A801970151
:100910000E945D062150304040405040569547951A
:100920003795279580E12030380710F0DD20B1F6AB
:10093000E889F9893083EA89FB892083EE89FF8978
:10094000408181E090E09C010A8C02C0220F331F9D
:100950000A94E2F7422B4083EE89FF8940819C0193
:100960000B8C02C0220F331F0A94E2F7422B408304
:10097000EE89FF8940819C010C8C02C0220F331F3D
:100980000A94E2F7422B4083EE89FF8920810D8C87
:1009900002C0880F991F0A94E2F780958223808312
:1009A000DF91CF911F910F91FF90EF90DF9008950D
:1009B0001092C6011092C50188EE93E0A0E0B0E06D
:1009C0008093C7019093C801A093C901B093CA0155
:1009D000E5ECF1E085E291E0929382938BE391E084
:1009E000958784878FE791E09787868785EC90E0ED
:1009F000918B808B84EC90E0938B828B80EC90E0E9
:100A0000958B848B81EC90E0978B868B86EC90E0C5
:100A1000918F808F84E0828F83E0838F87E0848F43
:100A200085E0858F81E0868F0895CF92DF92EF92E7
:100A3000FF920F931F93CF93DF936C017B018A0189
:100A4000C0E0D0E00FC0D7016D917D01D601ED91DE
:100A5000FC910190F081E02DC6010995C80FD91FC6
:100A6000015010400115110571F7CE01DF91CF91B2
:100A70001F910F91FF90EF90DF90CF900895DB01D1
:100A80000D900020E9F7AD0141505040461B570B37
:100A9000DC01ED91FC910280F381E02D0995089530
:100AA0000E943F050895DC01ED91FC910190F081D9
:100AB000E02D099508950F931F93CF93DF93EC01D9
:100AC0006DE00E9453058C01CE016AE00E9453053F
:100AD000080F191FC801DF91CF911F910F91089541
:100AE0008F929F92AF92BF92CF92DF92EF92FF923E
:100AF0000F931F93DF93CF93CDB7DEB7A1970FB6B8
:100B0000F894DEBF0FBECDBF6C01042FE52FCB01E3
:100B1000122F19A2223008F41AE021E2E22EF12C61
:100B2000EC0EFD1E812E9924AA24BB2403C0022FA3
:100B3000E32FCA01602F7E2FA50194010E945D065C
:100B4000129F802D1124081B0894E108F1080A3037
:100B500014F4005D01C0095CF70100832115310523
:100B60004105510521F7C601B7010E943F05A19635
:100B70000FB6F894DEBF0FBECDBFCF91DF911F91AE
:100B80000F91FF90EF90DF90CF90BF90AF909F902C
:100B90008F900895CF92DF92EF92FF920F931F9361
:100BA000CF93DF93EC017A018B012115310541F4DC
:100BB000E881F9810190F081E02D642F09951AC038
:100BC0002A303105A9F477FF12C06DE20E94530567
:100BD0006C0144275527BA014E195F09600B710B50
:100BE000CE012AE00E947005C80ED91E04C02AE07A
:100BF0000E9470056C01C601DF91CF911F910F918A
:100C0000FF90EF90DF90CF900895CF93DF930E94F5
:100C1000D1010E948C00CAE0D4E00E949500209788
:100C2000E1F30E940A04F9CFF8940C94A006629FA5
:100C3000D001739FF001829FE00DF11D649FE00DD4
:100C4000F11D929FF00D839FF00D749FF00D659F35
:100C5000F00D9927729FB00DE11DF91F639FB00D34
:100C6000E11DF91FBD01CF0111240895AA1BBB1B73
:100C700051E107C0AA1FBB1FA617B70710F0A61B9C
:100C8000B70B881F991F5A95A9F780959095BC01BD
:100C9000CD01089597FB092E07260AD077FD04D0D1
:100CA000E5DF06D000201AF4709561957F4F089516
:100CB000F6F7909581959F4F0895A1E21A2EAA1BF1
:100CC000BB1BFD010DC0AA1FBB1FEE1FFF1FA217FC
:100CD000B307E407F50720F0A21BB30BE40BF50BF9
:100CE000661F771F881F991F1A9469F76095709582
:100CF000809590959B01AC01BD01CF01089597FBB4
:100D0000092E05260ED057FD04D0D7DF0AD0001CCF
:100D100038F450954095309521953F4F4F4F5F4F98
:100D20000895F6F790958095709561957F4F8F4F58
:100D30009F4F0895EE0FFF1F0590F491E02D099449
:040D4000F894FFCF55
:100D44002073656E736F7220312028696E292C2000
:100D540020002073656E736F7220322028696E291B
:100D640000000000008E031505290358033C037A94
:020D740003007A
:00000001FF
